S023000057494E43333430305F434849505F494E464F5F4558414D504C45322E737265635E
S1130000E02A0020355B0000315B0000315B00001A
S113001000000000000000000000000000000000DC
S1130020000000000000000000000000315B000040
S11300300000000000000000315B0000E5620000E9
S1130040315B0000315B0000315B0000315B00007C
S11300504D430000315B0000315B0000315B000068
S1130060315B0000B9480000C9480000D9480000CD
S1130070E9480000F948000009490000015B00005C
S1130080115B0000215B0000315B0000315B00006C
S1130090315B0000315B0000315B0000315B00002C
S11300A0315B0000315B0000315B0000315B00001C
S11300B00000000010B5064C2378002B07D1054B37
S11300C0002B02D0044800E000BF0123237010BDC0
S11300D02C0200200000000034A90000084B10B5D9
S11300E0002B03D00749084800E000BF0748036815
S11300F0002B00D110BD064B002BFBD09847F9E72D
S1130100000000003002002034A9000034A90000DF
S11301100000000070B50020084B98470500084C0B
S1130120FA218900A047074B186007492800A04717
S1130130064B18600522064B1A6070BD4558000036
S11301400D6A00000000002040420F00040000205F
S113015010E000E030B5084B1C68084A00258021F7
S11301604902013807D3002CFBD054609560136812
S11301700B42FCD0F5E730BD0000002010E000E0A9
S113018010B5034B1B68002B00D0984710BDC04628
S11301904802002070B582B00023144A136001ACF9
S11301A001256570A370257021002120104EB047F1
S11301B021002520B04721002720B0470D4B2022E5
S11301C05A611E3A5A610C4B1B681D4203D00A4BFC
S11301D01B689B0701D4094B98470122084B1A70EE
S11301E0BFF35F8F62B6002002B070BD48020020EA
S11301F0B14400008044004110E000E0150100001B
S11302000A00002000B583B001A900230B708B7095
S11302104B70054B20225A611E3A5A612420034B2D
S11302209847002003B000BD80440041B144000061
S113023070B5441E002804D0024D0120A847013C9B
S1130240FBD270BD55010000F8B5064C202767614C
S1130250022565610120044EB047A7610520B0471F
S1130260A561F8BD804400413102000010B584B09E
S11302700E4B186001AC20000D4B984724230193CA
S113028000236360013323720133E37221000420ED
S1130290084B9847002204210748084B984700213F
S11302A00420074B984704B010BDC0464802002004
S11302B0254400003944000081010000E1420000AF
S11302C00D43000010B5002804D100210420044B84
S11302D0984710BD00210420024B9847F9E7C04617
S11302E02D4300000D430000F0B5DE4657464E4650
S11302F04546E0B585B006000D001400002202ABAF
S1130300DA71002828D000295FD101239B460023FD
S1130310019302ABDD1D01222D492E482E4B984737
S1130320002C3FD02B4B9A460127042199465A466C
S113033053425A419446307853461B681A7E3A42D7
S1130340FCD01A7E3A42FCD098621A7E0A42FCD053
S11303504A46927990460DE000239B46013301936F
S113036002ABDE1DD7E7404601280DD0986AC0B223
S1130370002A0DD01A7E0A42FCD0588B0022084273
S1130380F1D059831E32EEE7986AC005C00DEFE73D
S11303902870013CA4B26544019B5A425341F618AB
S11303A0002CC8D10B4B196802220B7E1342FCD0DF
S11303B0002207490748084B9847002005B03CBC79
S11303C090469946A246AB46F0BD06204042F5E76A
S11303D02009002024090020F14A000030B591B022
S11303E0304C0523237000236370A37001A90122FC
S11303F04A708B700A7005202B4B98472278D109DC
S11304000023002904D15309DB0128498C466344A5
S11304101F211140012210008840986102AC227013
S113042000230393049323746374A274E274237506
S11304302332A354183A002108A81D4B984780235F
S11304405B02E3601B4BA36201235B42E3621A4B32
S113045023631A4B63631A4BA361220019491A4898
S11304601A4B984700281AD1174D2C682000184BB6
S113047098471F2318401E3B8340164A13602A687E
S1130480D369002BFCD12368022213432360124B4F
S113049098470120114B9847002011B030BD062029
S11304A04042FAE720090020B14400000044004122
S11304B0BD6D0000030004000300060003000700F4
S11304C0001BB7000008004224090020194900005D
S11304D08948000000E100E0490200003102000008
S11304E030B583B001AB00221A709A705A70144B65
S11304F09847144D2C682000134B98471F2318402D
S11305001E3B8340802211498B502A68D369002BFB
S1130510FCD18F332375237623680222934323600F
S113052001A906200A4CA04701A90420A04701A95B
S11305300720A04701A90520A047002003B030BD33
S113054005020000240900208948000000E100E0C1
S1130550B1440000002A06D082180B7803700130E1
S113056001319042F9D17047002A04D082180170F9
S113057001309042FBD1704703000278002A07D073
S11305800020013080B201331A78002AF9D1704773
S11305900020FCE770B5531EDBB2002A33D00133D0
S11305A0C21820241EE0273BDBB20F2B2DD81B01E1
S11305B0DBB203706D78303DEDB2092D0AD92543C5
S11305C0EDB22E00313E052E02D90F20404217E035
S11305D0273DEDB20F2D1BD85B190370013002319A
S11305E090420ED00D000B78303BDBB2092BDCD9E6
S11305F02343DBB21E00313E052ED4D90F204042E6
S113060070BD0020FCE70020FAE70F204042F7E726
S11306100F204042F4E70000024AD3780133DBB2F2
S1130620D3707047600900207047000000B583B0A4
S11306300022114B9A700120104B9847104B984799
S1130640104B1840C0239B03984207D001A90E48C1
S11306500E4B9847002806D003B000BD01210C487A
S11306600C4B9847F8E70221019B19430191064876
S1130670084B9847F0E7C04660090020C502000017
S11306801921000000F0F0FF70100000792600002E
S1130690A81000008526000010B50C4B9B780020A4
S11306A0002B0DD1094B5B78002B03D1074B1B7832
S11306B0002B06D1054A53780133DBB25370002076
S11306C010BD034B98470028F4D0F9E760090020D7
S11306D0A9220000014B18707047C0466009002031
S11306E0014B1878C0B270476009002010B50B4B5D
S11306F05B78002B04D0094A5378013BDBB253707A
S1130700064B5B780020002B03D1044B1B78002B95
S113071000D110BD024B9847FBE7C046600900209A
S11307204122000010B5054B9847040028220021FF
S11307300348044B9847200010BDC04699060000AA
S11307406009002069050000830B022B05D1800499
S1130750800E012804D1002070470D204042FBE7A1
S11307600D204042F8E7000030B583B06B46981D79
S1130770002303800021204B9847041E38D16B4688
S1130780DD8828001D4B9847041E22D1EBB2052BAF
S11307901BD898001A4B1B589F460122194B1A70FC
S11307A026E00222174B1A7022E00222154B1A701F
S11307B01EE00322134B1A701AE00A22114B1A701E
S11307C016E00D220F4B1A7012E00D220D4B1A7019
S11307D00EE000220B4B1A708C22FF320A490B48A0
S11307E00B4B98470B480C4B98470D200B4B9847E5
S11307F0200003B030BDC046612700004907000057
S1130800E08B00004C020020148C0000C08C00001F
S11308101D6F0000D48C000039700000516F00007F
S113082070B500020143234BCB189BB2012B3CD97A
S1130830214B1D78002D27D00C2D38D86B001F4A72
S11308409B5A8B4211D06E1CF6B21C487300C3181D
S11308500C24641BE2B2921952008018834222D005
S113086002339A1E12888A42F8D1D62252001449C1
S11308701448154B98471548154B98470D20154BB0
S113088098470120404270BDA622FF320C490D4812
S11308900D4B984710480E4B98470D200D4B984729
S11308A001204042EFE70020EDE70020EBE70020C5
S11308B0E9E7C04698FBFFFF4C020020788C00005B
S11308C0288C0000C08C00001D6F0000A88C000064
S11308D039700000516F0000948C0000F0B5DE46C2
S11308E057464E464546E0B587B005000E00914692
S11308F01F0010AB04CB92461B88984612AB1C8891
S11309007F21314005AB5970187008225A804B463C
S1130910002B65D0A24B9F4251D83B00083305AA57
S11309205380E31B9B465346002B08D044449C4B06
S11309309C4257D805AA538843445B4453802800FB
S1130940984B9847041E00D011E1974B05AA528892
S11309509A4200D913E1954B9847041E00D0FAE05F
S1130960002303936A46D3800293029B1D4302959E
S1130970029B36021E430296029A05AB5B881B0457
S11309801343029302998A488A4B9847041E0BD159
S113099000230293029B0222134302930299864886
S11309A0844B9847041E2ED0844B5B78002B00D1D7
S11309B0DDE0824A5378013BDBB25370D7E0D822A2
S11309C0FF327F497F48804CA047754B3A007F49EE
S11309D07F48A0470D207F4B984701246442C6E01E
S11309E0A346A0E7E222FF3275497648764DA84730
S11309F06B4B220078497948A8470D20754B9847DE
S1130A0001246442B3E0764B9847764B1840C023E8
S1130A109B0398420CD0002203926B46DA80063383
S1130A201B889BB2704A93423FD8704C704D16E0BD
S1130A30012170485F4B9847041EB5D1EBE70520B0
S1130A40A847029B9B0727D56B469A1DDB88013379
S1130A509BB2138013889BB2634A934225D802A9A0
S1130A605548A047002820D16B4606331B889BB20B
S1130A70614A9342E5D96B4606331B889BB2013227
S1130A809342DCD15D48504B98475D485D4B984795
S1130A900D20504B9847D2E703A95B48534B984726
S1130AA0041E02D0002303937EE7039B002B4DD04A
S1130AB0039B04930498082205A9544B9847041EE9
S1130AC000D071E7049B083304934B46002B0AD0F3
S1130AD004983A0049464D4B9847041E00D063E7FA
S1130AE0049BFF1804975346002B0DD0049B5B44D2
S1130AF00493049842465146444B9847041E00D040
S1130B0052E7049B43440493039B9B000293029B80
S1130B1002221343029302993D48264B9847041E30
S1130B2000D041E72E4B98472E4B1840C0239B031F
S1130B30984203D0374B9847040018E00121364807
S1130B401C4B9847041E00D02EE7F3E7314B98471F
S1130B50032464420BE095229200194919481A4B68
S1130B6098472E48274B98470D201A4B984720004A
S1130B7007B03CBC90469946A246AB46F0BD284A15
S1130B800F491048104CA04705AB5988064A254820
S1130B90A0470D200F4B984701246442E7E7C04665
S1130BA034060000210800003C06000099060000FD
S1130BB08C100000852600007810000060090020D9
S1130BC0388C0000C08C00001D6F00001C900000D9
S1130BD024900000516F0000449000004C900000ED
S1130BE01921000000F0F0FF8713000079260000AF
S1130BF031020000AC100000E70300007090000018
S1130C007C9000003970000000041500F9260000F3
S1130C106C100000ED060000B01000008C90000085
S1130C205A020000AC900000F0B5DE464F4646463E
S1130C30C0B586B00022D84B1A7100269846994652
S1130C402FE1A1229200D549D548D64B9847D648E2
S1130C50D64B98470D20D64B984744E1CE4B059A86
S1130C609A605A46DA60042204A90598D14B984741
S1130C7004006B465B8A9BB26A465382002832D1D9
S1130C8004AB5B889BB29B4505D004AB5B885A469A
S1130C90D31A042B33DC04AB1B78012B44D004ABF4
S1130CA01B78022B75D004AB1B78042B00D18DE08C
S1130CB004AB1B78062B00D1A4E004AB1B78052BF6
S1130CC000D0C7E0B44B5B6A002B00D1B6E0B24B56
S1130CD05B6A04AA5078C0B25188059A0832083970
S1130CE089B298472FE0B44AAC49AD48AD4B984718
S1130CF0B248AE4B98470D20AD4B9847F3E0B04A4D
S1130D00A649A748A74CA04704A94A8892B20B78E1
S1130D10DBB2497800915946AA48A0470D20A44B5C
S1130D20984706246442DEE09B4B1B69002B24D0C9
S1130D30994B1B6904AA5078C0B25188059A0832AD
S1130D40083989B29847944B9B78002B00D1A8E0CE
S1130D509D4A92499248934CA04704AB1978C9B272
S1130D605A78D2B29948A0470D20914B9847984B96
S1130D709847041E00D0B6E093E0964A8749884815
S1130D80884B98479448894B98470D20884B98473F
S1130D90D9E7814B5B69002B0BD07F4B5B6904AABD
S1130DA05078C0B25188059A0832083989B29847F8
S1130DB0C9E7AD229200794979487A4B9847874828
S1130DC07A4B98470D207A4B9847BCE7724B9B6946
S1130DD0002B0BD0704B9B6904AA5078C0B2518889
S1130DE0059A0832083989B29847ACE77C4A6B49BE
S1130DF06B486C4B98477B486C4B98470D206C4B69
S1130E009847A0E7644BDB69002B0BD0624BDB698E
S1130E1004AA5078C0B25188059A0832083989B2B8
S1130E20984790E7704A5D495D485E4B98476F4824
S1130E305E4B98470D205E4B984784E76C4A5749B0
S1130E405748584B98476B48584B98470D20584B78
S1130E50984778E7684A51495148524B9847674840
S1130E60524B98470D20524B9847062464423AE06F
S1130E70634A4A494A484B4B984762484B4B984708
S1130E800D204B4B9847022464422CE05E4A4349B0
S1130E904348444CA04703995C48A0470D20444B69
S1130EA098474346DB78002B00D1CDE04B461B79B5
S1130EB0002B00D0C8E00020554CA047364AD37818
S1130EC0013BDBB2D3700120A0470425514F19E048
S1130ED0514A32493248334B98475048334B98472C
S1130EE00D20334B9847002D48D04D4A4D492C488E
S1130EF02C4EB0472A0021004B48B0470D202C4B04
S1130F009847013D03A94948B8470400061EDFD1AC
S1130F10039BDB07BAD503A944483E4B9847041EFC
S1130F20E1D101230399994303914048404B9847E9
S1130F30041ED8D103A93D48364B9847041E00D05F
S1130F407FE60122144B9A70039B9B041B0D9B4666
S1130F508ED00023059305A936482E4B9847041ECE
S1130F6000D17BE6344A0D490D480E4B984733486F
S1130F700E4B98470D200E4B9847B4E7304A294949
S1130F800748084DA84721002E48A8470D20084BC4
S1130F909847260085E7C04660090020448C00007D
S1130FA0C08C00001D6F0000048D0000397000002B
S1130FB0516F0000912600009A0200004C8D000041
S1130FC0A2020000648D0000D3020000648E0000C1
S1130FD02D060000AD020000A48D0000C48D0000A9
S1130FE0BB020000E88D0000C2020000088E000071
S1130FF0C90200002C8E0000CD0200004C8E0000BF
S1131000DB020000908E0000E2020000A48E0000CB
S1131010C502000079260000E9020000C08E00002D
S11310201E0300004C8C00002C8F00007010000088
S1131030852600008410000091020000288D000025
S11310401A030000E48E0000300006B01CBC904679
S11310509946A346F0BDC04670B514001D00002893
S113106003D0002901D0002A13D1002D02D0284B2F
S1131070984770BDD022920026492748274B9847AD
S11310802748284B98470D20274B98470C2040426F
S1131090EFE7264BDB689A421BD8244B9B689842A7
S11310A028D38618214A9368D2689B189E4221D877
S11310B022001F4B98470028DBD1002D06D11B4A84
S11310C09368D2689B189E1B032ED2D8104B984766
S11310D0CFE7D22292000F490F48104DA847134B77
S11310E0DA6821001348A8470D200F4B98470C20BD
S11310F04042BEE7104A07490748084B98470F4843
S1131100084B98470D20084B98470C204042B0E705
S11311102D0600005C8C0000C08C00001D6F0000D8
S1131120648F000039700000516F000060090020D6
S113113091260000848F00004E030000CC8F000035
S113114070B5040006281BD88300154AD3589F465F
S1131150144B5961002070BD124B19610020FAE74D
S1131160104B99610020F6E70E4B19620020F2E75C
S11311700C4BD9610020EEE70A4B59620020EAE7E4
S1131180E222920008490948094DA847210009486C
S1131190A8470D20084B98470C204042DBE7C04687
S11311A0F88B000060090020688C0000C08C0000EF
S11311B01D6F000010900000516F000010B5282230
S11311C000210648064B98470648074B98470749AD
S11311D00320074B9847074B984710BD6009002030
S11311E069050000190600006D02000029060000D0
S11311F041110000ED06000010B5014B984710BDE9
S1131200BD25000070B59EB0040015002C2838D010
S11312101D2847D0082855D0102841D0322861D045
S11312202F2800D16EE0342800D180E0132800D1AB
S11312309EE0152800D1B1E0042800D1C0E0652863
S113124000D1CFE00B2800D1DEE02A2800D1EDE068
S1131250692800D1FCE0222800D10BE13C2800D110
S11312603BE1242800D155E196225200B249B3480B
S1131270B34DA8472100B348A8470D20B24B984767
S11312800EE00023042202A92800B04CA047002845
S113129006D1AF4B1B68002B02D002A92C30984713
S11312A01EB070BD0023082202A92800A74CA04745
S11312B00028F5D1A64B1B68002BF1D002A91D30E4
S11312C09847EDE70123302202A928009F4CA0474C
S11312D00028E5D19E4B1B68002BE1D002A9083001
S11312E09847DDE70023142202A92800974CA04761
S11312F00028D5D1964B1B68002BD1D002A93230DF
S11313009847CDE76822002102A8924B9847002312
S1131310682202A928008D4CA0470028C0D18C4B1C
S11313201B68002BBCD002A92F309847B8E70023D4
S1131330042202A92800854CA0470028B0D1864881
S11313407F4DA847029C230AFF200340220C024041
S1131350210E204000908148A8470D207A4B9847E1
S11313607B4B1B68002B9BD000213420984797E7C8
S11313700023042202A92800744CA047002800D0AE
S11313808EE702AB1A78764B1A70714B1B68002BF0
S113139000D185E702A91330984781E700232C2266
S11313A002A92800694CA047002800D078E7684BC0
S11313B01B68002B00D173E702A9153098476FE72B
S11313C0002304221CA92800604CA047002800D058
S11313D066E75F4B1B68002B00D161E71CA9043052
S11313E098475DE7002304221CA92800574CA04716
S11313F0002800D054E7564B1B68002B00D14FE760
S11314001CA9653098474BE70123642202A92800F0
S11314104E4CA047002800D042E74D4B1B68002BE0
S113142000D13DE702A90B30984739E70123042294
S113143002A92800454CA047002800D030E7444BBF
S11314401B68002B00D12BE702A92A30984727E715
S11314500023042202A928003C4CA047002800D005
S11314601EE73B4B1B68002B00D119E702A969302A
S1131470984715E7002302221CA92800334CA047F3
S1131480002800D00CE71CAA53781B021478E41837
S1131490A4B2A01C334B9847061E13D00480811CB1
S11314A0A81C01232200294CA047002806D1284B60
S11314B01B68002B02D031002230984730002A4BA1
S11314C09847EDE6E1221C491C481D4CA0472748DB
S11314D0A0470D201C4B9847E2E60023082202A9EE
S11314E028001A4CA047002800D0D9E602AB9A88FD
S11314F02800083001230299144CA047002800D08A
S1131500CEE6134B1B68002B00D1C9E602A93C3080
S11315109847C5E60023042202A928000B4CA047E3
S1131520002800D0BCE60A4B1B68002B00D1B7E6AC
S113153002A924309847B3E6E0900000C08C000074
S11315401D6F0000F8910000516F00005910000059
S1131550500200206905000070900000C491000052
S113156054020020956D0000A96D0000E491000074
S1131570F0B5C64600B5070088461D00069C2C320F
S113158096B2002B43D05B68002B43D02B7A202BE0
S113159043D8002C44D0302200212000274B984708
S11315A02680012F07D0002F09D0022F3BD1A3782A
S11315B002221343A370A37801221343A3706B7A0E
S11315C0FF2B22D0013BDBB20D2B2FD8E370434617
S11315D0013B032B2DD82C234246E2542B7A237152
S11315E02A7A601D6968164B98472B68002B23D014
S11315F001222523E2542968200026300532104BAD
S11316009847002004BC9046F0BDE370DFE70F204C
S11316104042F7E70F204042F4E70F204042F1E751
S11316200C204042EEE70F204042EBE70F204042FF
S1131630E8E70F204042E5E70020E3E76905000002
S11316405505000070B504000D0083789B0723D472
S11316502523C35CDB0722D4682200212800114B18
S113166098472279611D280046300F4B984723790B
S1131670EB18463300221A70E2784423EA52A37826
S113168001225A40012313406722AB542C23E25C0D
S11316901533EA54002070BD0C204042FBE70C20B7
S11316A04042F8E7690500005505000010B5041E26
S11316B03BD05B4B9847002846D02000584B9847B6
S11316C0202841D82123E35C013B0D2B4BD8412337
S11316D0E35C002B07D14233E35C002B03D143339B
S11316E0E35C002B4ED03F23E35C012B00D195E05B
S11316F0032B00D083E01F33E35C013B032B50D862
S11317002323E35C102293430A2B59D06332FF3224
S113171044494548454B98474548464B98470D2012
S1131720454B98470C235B4258E04422FF323D4925
S11317303D483E4B984741483E4B98470D203E4B11
S113174098470C235B4249E0A522520035493648AC
S1131750364B98473A48374B98470D20364B9847B5
S11317600C235B423AE05222FF322E492E482F4B83
S1131770984734482F4B98470D202F4B98470C23FC
S11317805B422BE0AD22520026492748274B98475D
S11317902D48284B98470D20274B98470C235B4234
S11317A01CE06A22FF321F491F48204B98472748F4
S11317B0204B98470D20204B98470C235B420DE0AB
S11317C02434002C0CD02000154B9847002807D057
S11317D02000134B984700231A2801D8180010BD85
S11317E07A22FF320F491048104B98471848114B82
S11317F098470D20104B98470C235B42EEE7C0221C
S1131800520008490848094B98471248094B984721
S11318100D20094B98470C235B42DFE70023DDE7EB
S113182079050000EC900000C08C00001D6F0000E2
S11318308491000039700000516F00002C91000069
S11318403C9100004C910000589100007091000000
S113185098910000A891000010B586B005AA002355
S11318600593107002930193009304332321012004
S1131870014CA04706B010BDDD08000010B50020E3
S1131880014B984710BDC046512A000010B50020F6
S1131890034B98470020034B9847002010BDC046D7
S11318A025070000752B000010B5054B984701284B
S11318B004D0023843425841400010BD0120FCE7E7
S11318C0F52B000010B5054B98470023022801D0E2
S11318D0180010BD024B98470300F9E7A91800004F
S11318E0290C000010B5AAB00B001EAA0092002219
S11318F00121114CA047002801D02AB010BD0023BB
S113190002930193009330331EAA3D2101300B4C06
S1131910A0470028F1D004A91EA8094B9847002825
S1131920EBD10023029301930093683304AA282186
S11319300130024CA047E0E771150000DD0800000B
S11319404516000070B5AAB0151E54D01368002BBC
S113195054D05279013A032A53D82A7910239A434E
S11319600A2A51D104AB00930B0006320321284C00
S1131970A047041E02D020002AB070BD1020254BC1
S11319809847061E1AD06B79013B03702A795208D6
S1131990427002302968204B984730230293203B41
S11319A001930096203304AABD2101201B4CA047BB
S11319B0040030001A4B9847002CDCD010A904A86E
S11319C0184B9847041ED6D110AC6B79013B237099
S11319D02A796270296842206844134B984700238F
S11319E002930193009368332200282101200B4CB9
S11319F0A0470400BFE70F246442BCE70F246442FD
S1131A00B9E70F246442B6E70F246442B3E7C04643
S1131A1071150000956D000095050000DD080000BB
S1131A20A96D0000451600005505000070B5AAB068
S1131A30161E5FD004AB00930B006C220221334CC2
S1131A40A047041E02D020002AB070BD6C20304B89
S1131A509847051E0CD06C2200212E4B9847316804
S1131A6000292BD07368002B19D028002A4B9847E3
S1131A7010A904A8294B9847041EE4D12A78691CAC
S1131A8010A8274B984700230293019300936833CF
S1131A9010AA28210120234CA0470400D3E7403397
S1131AA02B706C1C202220001F4B9847002824D147
S1131AB02A78316820001A4B984709E07168002998
S1131AC0D3D0327A402AD0D82A70681C144B984755
S1131AD0302302933C33019300953C3B04AABD217F
S1131AE00120104CA047040028000B4B9847002C01
S1131AF0A9D0BDE70F246442A5E72A783168200005
S1131B00074B98470F246442EEE7C0467115000066
S1131B10956D000069050000A96D000045160000E0
S1131B2055050000DD08000095050000F0B589B0FA
S1131B301F000EAB1D880FAB1C7805AB0026059665
S1131B40069019725D7263425C416400202908D9D1
S1131B50022A20D0032A35D0012A16D00F20404271
S1131B6017E00191002501260139C9B2FF2905D0EA
S1131B70435C002BF8D101913500F5E7002DE7D047
S1131B8005AB694609791972E2E705A92000184BEB
S1131B90984709B0F0BD002F23D00023029303938C
S1131BA002AA13723800134B9847402808D00397B1
S1131BB002AB187202AA05A920000F4B9847E8E768
S1131BC00297F7E7002F0FD0BB1C02937B78013BF1
S1131BD002AA13713B78537105A92000074B98475B
S1131BE0D7E70F204042D4E70F204042D1E7C04658
S1131BF0E5180000790500002D1A000045190000C1
S1131C0030B583B006AC2488002501950094024CBD
S1131C10A04703B030BDC0462D1B000010B584B0F2
S1131C20020000230293019300930433392101201D
S1131C30014CA04704B010BDDD08000070B586B0AB
S1131C40040005AA107051700023029301930093BD
S1131C5004332D210120094DA84706000848094DE9
S1131C60A84721000848A8470D20084B98472000A2
S1131C70074B9847300006B070BDC046DD08000031
S1131C80709000001D6F00004C920000516F000026
S1131C90D506000010B586B004000A4B984700230F
S1131CA0042802D0180006B010BD059402930193D5
S1131CB00093043305AA3A210338034CA0470300D8
S1131CC0F0E7C046E1060000DD08000070B505003D
S1131CD0064B9847041E01D0200070BD2800044B19
S1131CE098470400034B9847F6E7C046990600005E
S1131CF099270000ED06000070B50500064B9847D3
S1131D00041E01D0200070BD2800044B9847040035
S1131D10034B9847F6E7C04699060000F9280000EF
S1131D20ED060000F0B589B0050001226B46DA70BB
S1131D3000283DD0204B02681A6000201F4B9847B2
S1131D40041E2FD11E4901201E4B98476B46D81CF8
S1131D501D4B9847041E28D11C4F38001C4CA0472B
S1131D600023022201211B48A0470D201A4EB04730
S1131D703800A0470523012202211848A0470D205E
S1131D80B04701A8164B9847040001A8154B984783
S1131D90002C0AD1144B9847041E06D1287E134BFD
S1131DA0984702E00020124B9847200009B0F0BD8C
S1131DB00C246442F9E7C04650020020BD11000023
S1131DC00512000041110000D52A000070900000A7
S1131DD01D6F00000C920000516F0000289200005B
S1131DE0CD1C0000F91C0000690700005918000010
S1131DF0752B000010B50400044B9847002800D050
S1131E0010BD2000024B9847FAE7C0467D18000039
S1131E10251D0000F0B5ABB004000D00160000282D
S1131E2046D0254B9847002803D00C2040422BB0C5
S1131E30F0BD4822210004A8204FB84721004831B2
S1131E400C2299206844B84728001D4B9847002865
S1131E5020D0002D1ED004AC4022290016A8174B18
S1131E6098478823E6540023029301930093983300
S1131E702200A7210120134CA047431CD7D10023E3
S1131E80029301930093983304AA8A2102300D4CE3
S1131E90A047CCE70C4A0D490D480E4B98470E4815
S1131EA00E4B98470D200E4B98470C204042BEE73E
S1131EB00C204042BBE7C046AD16000055050000AB
S1131EC079050000DD0800004607000008910000C5
S1131ED0C08C00001D6F00005C920000397000008F
S1131EE0516F0000F0B599B005000191170003ACE3
S1131EF04822010020000A4EB0474135042229003F
S1131F0015A8B0470422290016A8B0470022502380
S1131F10E2543A0001992000024B984719B0F0BDF1
S1131F2055050000151E000010B584B04142414122
S1131F300E31002302930193009300220120024CEE
S1131F40A04704B010BDC046DD080000F0B583B062
S1131F500400A5256D010A4E0A4F21002800B04750
S1131F60002C09D00023019301A92800B8470028B8
S1131F70F3D1019B9C42F0D1002003B0F0BDC046D8
S1131F80852600007926000000B583B00023019364
S1131F9001A90120064B984701998B0701D403B08E
S1131FA000BD0223994301910120024B9847F6E7B3
S1131FB0792600008526000000B583B00023019334
S1131FC001A91748174B984700281DD180214900C3
S1131FD0019B194301911248134B9847002816D1CD
S1131FE001A9D02040010F4B9847002812D180212D
S1131FF04902019B19430191D02040010A4B9847A3
S113200000280AD103B000BD06204042FAE70620AA
S11320104042F7E706204042F4E706204042F1E759
S113202008140000792600008526000030B583B02E
S11320300023019300212948294DA84704000021C9
S11320402848A8470419E4B200212748A8472418BF
S1132050E4B201A92548264B98472418E4B2002C81
S113206026D10121019B1943019120481C4CA04712
S113207001212048A047040001A9A02040011C4BD5
S113208098470419E4B201994B051DD464B2802128
S1132090C900019B19430191A0204001104B9847AE
S11320A00419E4B20120144B984760B203B030BD68
S11320B0A72212491248134B98471348134B9847C9
S11320C00D20134B9847CCE7124B19400191A020E7
S11320D04001034B9847241864B2D8E70C000C0065
S11320E0852600008C100000AC07020018110000C7
S11320F079260000140015003102000070920000DF
S1132100C08C00001D6F00001C930000397000009B
S1132110516F0000FFFBFFFF10B582B03B4B1C6802
S1132120002C04D0394B1C68200002B010BD1900EB
S113213080204001364B9847002803D00022334BBF
S11321401A60F1E701A93348314B9847002803D0BE
S113215000222E4B1A60E7E72C4B1B682E4A934251
S113216016D02E4A934223D02D4A93422DD0274B8A
S11321701B68F02212041A40C02189038A420FD13D
S1132180284A13408022D2021343204A1360C9E72D
S1132190019B012B02D0244A1C4B1A601B4B1B6869
S11321A0204A1340A022D2021343184A1360B9E70D
S11321B0019B032BF2D0042B03D01C4A134B1A604F
S11321C0ECE71B4A114B1A60E8E71049EC20800346
S11321D00F4B9847002803D000220C4B1A60A3E74A
S11321E0144B0A4A12689A42C1D1019B062B04D0AF
S11321F0022B06D0054B1B68C2E70F4A034B1A603B
S1132200F8E70E4A014B1A60F4E7C0465802002072
S113221079260000F4130000A0021000B0021000A0
S1132220F0001000FFFFF0FFA1021000B202100046
S1132230B1021000D0003000D1003000D2003000D4
S113224030B583B0164C012501A91420A0470028FD
S11322501CD1019B2B42F7D101A90130104B9847A7
S1132260002813D101998B0707D5022399430191C3
S113227001300C4B9847002808D101A90E20084BC7
S11322809847002802D10199CB0701D403B030BD8F
S11322900123994301910E30024B9847F6E7C0465B
S11322A07926000085260000F0B583B00023019351
S11322B0009369461320284CA04701A90E20A0478B
S11322C0041E30D10199CB0706D4012319430E20F3
S11322D0224B9847041E26D101A901201E4B984782
S11322E0041E20D101998B0720D505251A4F1C4EB9
S11322F069461320B847041E20D1009B5B0712D403
S11323000220B047013D002DF2D18422FF3215494D
S11323101548164B98471648164B98470D20164BF0
S1132320984704246442200003B0F0BD02231943FB
S113233001200A4B9847041ED7D0F4E77A22FF32D3
S113234008490948094DA847009A21000B48A847A5
S11323500D20094B9847E6E7792600008526000002
S1132360310200007C920000C08C00001D6F000050
S11323700093000039700000516F0000E8920000E3
S1132380F0B5C64600B58046254D264C264E28009D
S1132390A047002802DB0120B047F8E72348214B7F
S11323A09847C30725D54346022B17D04746033F1A
S11323B07B425F41FF011E4B98470005000DE82357
S11323C09B00984210D038001A4B98471A491B4872
S11323D01B4B9847002004BC9046F0BD19491A488D
S11323E0174B98470027E6E702203843114B9847DC
S11323F0ECE701200C4B984710480A4B9847FA2405
S1132400E400124D084F074EA842CCD00120B84733
S11324100A48B047013C002CF6D105204042DAE7D7
S1132420141000006D26000031020000BC070200F9
S1132430192100004D1F0000612F52EF0C000C0009
S1132440852600007DD51C3CAC0702009ED0AD1053
S113245070B584B000230393184B0293184B019377
S1132460022803D0174C184E184D07E0184B02935E
S1132470184B0193F6E7013C002C1CD0019B039AF6
S113248093420BD00220B047029803A9A847002822
S1132490F1D0019B5A4253410393ECE7019A084B54
S11324A000209A4201D004B070BD002103480A4BB9
S11324B098470020F7E705204042F4E78C1000001D
S11324C036265302D10700003102000079260000AD
S11324D0AC0702007DD51C3C85260000F0B583B016
S11324E00023019301A9A0204001264B984700280E
S11324F024D12549019B19400191A0204001234B7F
S1132500984704000A25002824D11E4E1F4F01A914
S1132510A0204001B047041E28D101994B050AD5DB
S1132520194B19400191A0204001B8470400013D16
S1132530EDB2002DEBD1200003B0F0BD144A1549D3
S11325401548164B98471648164B98470D20164BBE
S11325509847CEE7154A0F490F48104B984714483F
S1132560104B98470D20104B9847E4E7114A09494E
S113257009480A4B984710480A4B98470D200A4BC4
S11325809847D8E779260000FFFBFFFF8526000067
S11325902502000088920000C08C00001D6F00001E
S11325A0A092000039700000516F00002B0200005F
S11325B0B892000032020000D092000070B582B0E0
S11325C005000E0001A91848184B9847041E0DD1A8
S11325D0002E18D0019BAB43019301991248144B70
S11325E09847041E13D1200002B070BDA0229200AF
S11325F010491148114B98471148124B98470D2028
S1132600114B9847EFE7019B1D430195E5E70F4AFE
S113261008490948094B98470D480A4B98470D202B
S1132620094B9847DFE7C0462C14000079260000C8
S11326308526000094920000C08C00001D6F0000ED
S11326404493000039700000516F00008A020000BA
S11326506493000010B5014B984710BDDD030000E2
S113266010B5014B984710BDE104000010B5014BB3
S1132670984710BD7135000010B5014B984710BD47
S1132680B132000010B5014B984710BD912F0000E6
S1132690F0B5D6464F464646C0B582B08046894618
S11326A01500134B1F88083FBBB201931E000400A2
S11326B09A421AD90F4B9A46371A4346E11A4944AB
S11326C0019A2000D047002809D1AD1B3919A4195B
S11326D0B542F2D8AAB249442000064B984702B04A
S11326E01CBC90469946A246F0BD0021F2E7C046C4
S11326F00800002001340000F0B5D6464F46464697
S1132700C0B582B0804689461500134B1F88083F28
S1132710BBB201931E0004009A421AD90F4B9A4689
S1132720371A4346E11A4944019A2000D047002849
S113273009D1AD1B3919A419B542F2D8AAB249443A
S11327402000064B984702B01CBC90469946A2460E
S1132750F0BD0021F2E7C046080000208D300000E3
S113276030B583B005000C000023019301A908488B
S1132770084B9847002809D1002D02D06B469B884E
S11327802B80002C02D0019B1B0C238003B030BD96
S1132790AC07020079260000F0B585B005000E24D0
S11327A06C44002323800293082200216846404B96
S11327B098471C22002128003E4B98470021200006
S11327C03D4B98473D483E4EB04721883D48B04771
S11327D00D203D4B984723889B0B022B51D102A916
S11327E03A483B4B9847041E4DD1029B002B58D0CE
S11327F0C0208002184308226946364B9847041EBD
S113280041D1019B1804000C02904DD0C0239B02BF
S113281018431C2229002F4B9847041E33D1274804
S1132820274EB0472988CBB28A04920E890B2A48D6
S1132830B0470D20244FB8472048B0476B792A7918
S1132840A9782648B0470D20B8471C48B0472A004D
S11328501232A91D2248B0470D20B8472A880E23FA
S11328606B441B889A4219D076221E491E48144B89
S113287098471E481E4B98470D20134B98470C3C15
S113288001E00C2464428C22164917480C4B9847EB
S11328901848174B98470D200B4B9847200005B05C
S11328A0F0BD0C246442EEE70C246442EBE7C0461E
S11328B0BD6D0000690500006127000070900000F4
S11328C01D6F00007C940000516F00009C140000F8
S11328D079260000912600008C940000A894000042
S11328E0C494000084930000C08C0000E0940000B5
S11328F03970000000950000F0B585B005000E2485
S11329006C440023238002930822002168463E4B36
S113291098471C22002128003C4B984721000020A6
S11329203B4B98473B483C4EB04721883B48B04717
S11329300D203B4B984723889B0B022B50D102A9B7
S11329403848394B9847041E4CD1029B002B55D074
S1132950C0208002184308226946344B9847041E5D
S113296040D1019B180C02904BD0C0239B0218430A
S11329701C2229002D4B9847041E33D12548264E8E
S1132980B0472988CBB28A04920E890B2848B047F5
S11329900D20234FB8471F48B0476B792A79A9788F
S11329A02448B0470D20B8471A48B0472A001232CD
S11329B0A91D2148B0470D20B8472A880E236B442F
S11329C01B889A4217D0BA221C491D48124B9847BB
S11329D01C481D4B98470D20114B98470C3C01E0B7
S11329E00C2464420B480C4B98471848164B9847E4
S11329F00D200B4B9847200005B0F0BD0C24644219
S1132A00F0E70C246442EDE7BD6D000069050000A9
S1132A1061270000709000001D6F00001C950000ED
S1132A20516F00009C1400007926000091260000DC
S1132A302C950000449500005C950000A0930000D4
S1132A40C08C00007495000039700000909500005F
S1132A5070B501000020124B9847041E13D1114891
S1132A60114DA847114B984701001148A8470D2064
S1132A70104B9847104B9847104B98470122104B26
S1132A801A70200070BDFC220E490F48064B98476F
S1132A900E480F4B98470D20064B9847F1E7C04668
S1132AA055260000709000001D6F000019210000E1
S1132AB04C940000516F000085350000891F000010
S1132AC05C020020BC930000C08C00003094000025
S1132AD03970000070B5002813D005786B1E022BE6
S1132AE000D90125164B9847041E04D12800154B24
S1132AF09847041E07D0144B9847144B984720005E
S1132B0070BD0125EEE72800114B9847041EF2D151
S1132B10022DF4D00F4B9847041E03D102220E4B12
S1132B201A70ECE74A22FF320C490D480D4B9847C6
S1132B300D480E4B98470D200D4B9847DBE7C046D8
S1132B402D20000081230000612600006135000073
S1132B5051240000B91F00005C020020D093000043
S1132B60C08C00001D6F00005C94000039700000F0
S1132B70516F000010B5144B9847041E06D1134B37
S1132B809847041E13D1124B98470BE0BB22520006
S1132B9010491148114B98471148124B98470D2082
S1132BA0114B98470022114B1A70200010BDBE2211
S1132BB0520008490848094B98470D48094B984763
S1132BC00D20094B9847EDE7DD2400006126000045
S1132BD061350000E4930000C08C00001D6F00000C
S1132BE0F493000039700000516F00005C02002073
S1132BF014940000014B18787047C0465C02002012
S1132C0070B584B008AC257801AC20703D30C4B2F6
S1132C100C2C6CD8A000434C2058874601AB0A0CFE
S1132C205A700A0A9A70D97005223F4B1B78002B00
S1132C3060D0013AD2B26CE00B0ADBB2002D07D1AE
S1132C4001AA537001AB99700022DA700532ECE7E7
S1132C5080225242134301AA5370F3E701ABFF22CF
S1132C605A709A70DA70FA3ADFE701AA080C5070C9
S1132C70080A9070D170190C1171190A517193716D
S1132C800822D2E70B0ADBB2002D0CD101A8437055
S1132C9001AB9970110ED970110C1971110A597187
S1132CA09A710822C1E780204042034301A843707F
S1132CB0EEE701AB080C5870080A9870D970110E31
S1132CC01971110C5971110A9971DA710922ACE761
S1132CD09522520015491648164B98471648174B2B
S1132CE098470D20164B98470120404218E00120D8
S1132CF0404215E0561E01A98D197F23114C5B003B
S1132D0008784340E35C0131A942F8D15B0001A992
S1132D108B5592B2002101A80B4B98470028D7D1BC
S1132D2004B070BDA49500005D020020D895000099
S1132D30C08C00001D6F00003C9B00003970000037
S1132D40516F000070960000E9020000F0B583B0F6
S1132D5007000A246B46DD1D304E012229000020A5
S1132D60B047002815D12B78BB4222D0013C64B275
S1132D70631CF2D1BA22520029492A482A4B9847A7
S1132D802A482B4B98470D202A4B98470120404254
S1132D900DE06E22FF3222492248234B98472648F1
S1132DA0234B98470D20234B98470120404203B002
S1132DB0F0BD0A25002CDDDB6B46DC1D174E01221D
S1132DC021000020B047002815D12378002B21D002
S1132DD0013D6DB26B1CF2D18822FF3210491148BB
S1132DE0114B98471148124B98470D20114B9847A7
S1132DF001204042DBE7C0225200094909480A4B3E
S1132E0098470D480A4B98470D200A4B98470120D4
S1132E104042CCE7002DCADADEE7C046E9020000F2
S1132E20E0950000C08C00001D6F00009C9B00001A
S1132E3039700000516F0000689B0000F0B5DE4659
S1132E4057464E464546E0B587B0019002920023AE
S1132E509A4680239B019B466A46D381414F89460B
S1132E6032E0BC22FF3240494048414B9847414838
S1132E70414B98470D20414B984701246442200060
S1132E8007B03CBC90469946A246AB46F0BD002C28
S1132E9033DD019B5344190042460020314B9847CF
S1132EA0041E3AD1029B002B03D1354B1B78002B17
S1132EB042D0534643441BB29A464B4642469E1A5E
S1132EC0B3B29946002BDAD04E46D94501D96B46A8
S1132ED0DE89B3B298460A2404ABDD1C0F26012216
S1132EE029000020B8470028BBD12B78B343F02B2E
S1132EF0CDD0013C24B2631CF1D1E42252001A4922
S1132F001A481B4CA04704ABD9781E48A0470D2093
S1132F101A4B984701246442B1E7D222FF32124986
S1132F201248134B98471848134B98470D20134BDE
S1132F30984701246442A2E7022205A90020094B14
S1132F4098470028B5D0EE22520007490748084B9D
S1132F5098470E48084B98470D20084B9847012482
S1132F6064428CE7E9020000EC950000C08C00008C
S1132F701D6F0000C09B000039700000516F0000FD
S1132F805D020020F49B0000249C0000549C00007F
S1132F90F0B5DE4657464646C0B586B00390059167
S1132FA00A2500239846C93304932B4B9B4636E0ED
S1132FB004982A4B9847041E06D1200006B01CBC76
S1132FC090469A46A346F0BD254A26492648274EF0
S1132FD0B04703992648B0470D20264B9847012057
S1132FE0254EB0470023009300220021CF201A4F22
S1132FF0B847CF20194B9847204A1A491A481B4B07
S11330009A469847059B039A29001D48D0470D20EE
S1133010184B98470120B047013D002DCDD0039BAC
S1133020302B03D801239846C233049343460093BC
S11330300423059A039F39000498D847041EB7D087
S1133040104A08490848094EB04739000E48B047AD
S11330500D20084B9847C2E7012C00004D2D0000BD
S11330605F0200000C960000C08C00001D6F000081
S1133070E89A0000516F0000310200006D02000068
S1133080209B000055020000BC9A0000F0B5DE460B
S113309057464E464546E0B589B004908B460392A8
S11330A00A239A4680239B0199466A46D38237E0D5
S11330B00133039337E0C720664B9847071E49D076
S11330C0A722920064496548654CA0470499654865
S11330D0A0470D20644B98470120644CA04700236F
S11330E0009300220021CF20614DA847CF20594BE7
S11330F09847604A58495948594DA847039B049A30
S113310051465D48A8470D20574B98470120A047DA
S113311001235B429C46E2445346002B00D190E0DD
S1133120039B012BC4D000230093039B0022049D26
S11331302900C7204E4CA047071EBCD04F4A464921
S11331404648474CA04729004D48A0470D20464B10
S11331509847C1E7002207AB1A80039C00265F460C
S113316025E0002200234946A1425A4102320B20A5
S113317004AB9C46604410235B421343037001225A
S11331800021404B984700281ED1B8192A0000217D
S11331903C4B98478046002831D13B4B1B78002B91
S11331A03AD0AE1936B2641BA4B2002C48D0251C08
S11331B04C4501D96B46DD8AADB2002ED1D1032234
S11331C04C45D4D9023AD2E7BB46832292002F4918
S11331D02248234B98472E482E4B98470D20224BCC
S11331E098472D4A1C491D481D4B98472B48294B8D
S11331F098470D201C4B984701277F426CE7BB463C
S1133200274A22491548164B98472648214B984788
S11332100D20154B9847E4E70222002107A8194B1B
S113322098470028BDD0BB461F4A18490B480C4B91
S113323098471E48174B98470D200B4B9847D0E7EB
S11332404746380009B03CBC90469946A246AB4676
S1133250F0BDC0464D2D000020960000C08C00003B
S11332601D6F00009C990000516F000031020000A6
S1133270012C0000C1020000A09A0000920200008C
S11332806C990000E90200005D020020FC9500003A
S1133290D499000039700000A9020000789A000057
S11332A0150200000C9A00001F020000409A000062
S11332B0F0B5DE4657464E464546E0B587B0029027
S11332C089460A2500239846CA3303933B4B9B4601
S11332D02EE003983A4B9847041E46D0394A3A499F
S11332E03A483B4EB04702993A48B0470D203A4B12
S11332F098470120394EB047002300930022002153
S1133300CF202E4FB847CF202D4B9847344A2E4913
S11333102E482F4B9A469847029A29003148D047A5
S11333200D202D4B98470120B047013D002D30D092
S1133330029BFF2B03D801239846C33303934346D0
S1133340009304230022029F39000398D847041EE7
S1133350BFD0254A1C491D481D4EB047390023489B
S1133360B0470D201C4B9847C3E74246042105A8EB
S11333701F4B9847041E14D105AA53781B02917859
S113338009040B4311780B43D278120613434A46BF
S11333901360200007B03CBC90469946A246AB4659
S11333A0F0BD144A08490948094B98471248134B81
S11333B098470D20084B98479BE7C046012C000016
S11333C04D2D0000F302000034960000C08C000074
S11333D01D6F000000990000516F000031020000D1
S11333E01103000054990000E9020000D498000081
S11333F03D2E0000FE0200003499000039700000E8
S1133400F0B5DE4657464E464546E0B589B00390D2
S1133410059117000A2600239B460025414B9A4636
S1133420049652E001239B46013750E0C8203E4BEE
S11334309847041E18D15B46002B5ED007AB984614
S11334402A0039001800394B9847040043461B787A
S1133450059A1370002C57D1200009B03CBC90464B
S11334609946A246AB46F0BDD1229200304931487C
S1133470314B9846984703993048C0470D20304B4C
S1133480984701202F4B9846984700952B002A0017
S11334902900CF20234EB047CF20234B98472A4AF8
S11334A023492448244B994698473B00039A049E99
S11334B031002648C8470D20214B98470120C047BA
S11334C03300013B0493002BC6D0012FAAD00095F2
S11334D03B002A00039E3100C820D047041EA5D01B
S11334E01B4A13491348144B98469847310019480E
S11334F0C0470D20124B9847C3E72A0039000598AE
S11335000A4B98470400A5E7D622920008490948C7
S1133510094B98471048114B98470D20084B984782
S1133520AFE7C046012C00004D2D00003D2E0000E9
S113353050960000C08C00001D6F000074980000BD
S1133540516F00003102000062030000A09A0000E5
S11335503A03000044980000AC9800003970000061
S11335600022024B1A7000207047C0465D02002002
S113357000B583B001A9024B9847019803B000BD80
S1133580B132000030B583B000230093374A137082
S113359069463748374B9847002827D1334B1B7867
S11335A0002B0DD17C33009999432C3B1943009196
S11335B02F48314B984700283AD101222B4B1A70DF
S11335C001A9802040012B4B9847041E3FD1284D70
S11335D028002A4B98477023010099435020014347
S11335E02800254B9847200003B030BD01221F4B13
S11335F01A70234A23492448244B98472448254BCE
S113360098470D20244B984769461948194B984709
S11336100028C3D0214A1B491B481C4B984720480B
S11336201C4B98470D201C4B984706246442DAE74C
S1133630EC22920013491448144B98471948154B2F
S113364098470D20144B984706246442CBE7164A4A
S11336500C490D480D4B984714480E4B98470D20C4
S11336600D4B984706246442BDE7C0465D02002026
S113367024E80000B1320000912F000071350000F1
S1133680A303000064960000C08C00001D6F0000BE
S11336907097000039700000516F0000A60300000D
S11336A0C0970000EC970000BA03000020980000C7
S11336B0F0B5CE46474680B583B005000F000192B1
S11336C018000AAB1C88CC80002C10D02B01284A8F
S11336D09B58002B0BD02A01254B9B189B889BB22F
S11336E0002B04D0224B9B189B7A012B04D003B0EF
S11336F00CBC90469946F0BD1D4B9B189B88E31A61
S11337001BB2002B26DD1A4B9B189E88B3B2984639
S11337102B01174A995801234246164EB0470028F8
S11337201AD1134B2A01D15839604146B980F9881E
S11337304046091AF980981800218180D1500E4B17
S11337401B68002BD3D00C4B1B683A00019928004E
S11337509847CCE7A046DBE7A32208490848094D6F
S1133760A84721000848A8470D20084B9847BEE702
S11337708C090020591000004C0A0020989C00007D
S1133780C08C00001D6F0000889C0000516F000079
S1133790F0B5CE46474680B5A3B00D0014004128CD
S11337A040D0422859D0432872D0442800D151E156
S11337B04B2800D14EE1532800D144E14A2800D1DE
S11337C0B0E0462800D1C3E0482800D1F1E0062744
S11337D04D2800D1BDE0452800D10DE1472800D196
S11337E02FE107254C2800D107E1522800D06AE1D7
S11337F00123142208A92000B54CA047002800D0BA
S113380061E1B44B1B68099A9A4200D05BE1B24B68
S11338101B68002B00D156E108A90A7C0A99089874
S1133820984750E10023042208A92000A84CA0478F
S1133830002800D047E108AB5A7804AB1A70A74BB4
S11338401B68002B00D13EE1A44B1B6808AA002092
S1133850105604AA0121984735E10023042208A93F
S113386020009B4CA047002800D02CE108AB5A78DC
S113387004AB1A70994B1B68002B00D123E1974BC2
S11338801B6808AA0020105604AA022198471AE1CE
S113389000230C2204A920008D4CA047002800D04E
S11338A011E104AB09229A56D3B20B2B1AD8110199
S11338B08B4B5B180021D9720131997289490B88AD
S11338C001339BB20B800B889BB2002B03D10B8876
S11338D001339BB20B80834B198889B21001804B52
S11338E01B18D98008AB1A7002229A8004AA518846
S11338F0D980059A0A92794B1B68002B00D1E2E02B
S1133900764B1B6804AA0820105608AA042198477D
S1133910D9E008A884781B01714AD3189C73C27833
S1133920DA73C6E00023682208A92000684CA04787
S1133930002800D0C7E06C4B1B68002B00D1C2E00C
S1133940694B1B68219A0392110008A89847BAE0B2
S113395006270023102204A920005D4EB04700284A
S113396000D0B0E004AB0C201856C3B20B2B00D926
S1133970A9E004AAD3899C4603015949C918002324
S11339800B730826935F98465389994608AE53886B
S11339907381059B0B93CA8892B294450BD0102D6A
S11339A000D890E00123002200210020484CA047C9
S11339B089E00927CDE74346002B01DDA8450FDB4D
S11339C008AB42469A8000230893444B1B68002BA3
S11339D000D178E0414B1B6808AA3900984772E08F
S11339E023004B44424669468A818A8900923A0000
S11339F031003E4CA04766E007250023082208A9B1
S1133A002000334CA04700285DD108AB0020185695
S1133A10C3B20B2B57D808AB99885A8804AB1A80C9
S1133A2002012F4B9B18DB889BB299424BD12B4B45
S1133A301B68002B47D0294B1B6804AA2900984710
S1133A4041E00825D9E70822002108A8284B984717
S1133A50082205E00822002108A8254B98470422E3
S1133A60002308A920001A4CA04700282BD108AB3A
S1133A701B785BB2DAB20B2A25D804AA137008A902
S1133A800120085650701901154A5218128992B231
S1133A900521002A00D00531002800D039E708A804
S1133AA04288083A92B21C010D4B1B191A81027903
S1133AB05A730A4B1B68002B05D0084B1B6804AAD9
S1133AC000201056984723B00CBC90469946F0BD90
S1133AD05910000068020020600200204C0A0020F7
S1133AE08C09002064020020500A0020B136000036
S1133AF0BD6D000010B50A4B1B78002B00D010BD23
S1133B00C02200210748084B984708490220084B67
S1133B1098470122024B1A700022064B1A80EEE7E6
S1133B205E0200208C090020690500009137000026
S1133B30411100006402002010B5C0220021074892
S1133B40074B984700210220064B98470023064A5A
S1133B501360064A1360064A137010BD8C090020D6
S1133B6069050000411100004C0A0020500A0020A1
S1133B705E020020024B1860024B19607047C04679
S1133B804C0A0020500A0020F0B5DE46474680B5B6
S1133B9089B00592022800D0C8E001290DD002297D
S1133BA000D185E0032900D1AEE001277F4238002F
S1133BB009B00CBC90469B46F0BD5E4F3D78EDB21B
S1133BC03C78E4B204943878013006315A4B984773
S1133BD0C9B239702201594B9B189B7A0627002BD6
S1133BE019D0544E544B9B46544B98463578EDB2FD
S1133BF03478E4B20494307801300721D847C9B24C
S1133C003170230143449B7A002B07D0013FFFB25C
S1133C10002FEBD1C9E7494BD41802E02401474BEC
S1133C20E4186FB2102200212000454B9847059BF1
S1133C30002B20D1002FBADB0123A372414A138841
S1133C4001339BB2138013889BB2002B03D11388DA
S1133C5001339BB213803B4D2B889BB2E3803A48DF
S1133C603A4CA0472A8892B239003948A0470D201F
S1133C70384B98479BE707AA1770002302930193D8
S1133C800093043350210220334DA847049B1A01AA
S1133C902A4B9B180122DA72059B022BCAD1049B82
S1133CA01D01264B5D19EB7A7F321343EB72C1E79A
S1133CB02A4B1F78FFB21C782401294AA4181978CA
S1133CC0013103220A401A70A37A002B14D0032274
S1133CD02249234D03200F78FFB20C782401641984
S1133CE00B78013303400B70A37A002B04D0013A04
S1133CF0D2B2002AEFD158E707377FB21022002151
S1133D0020000F4B984795E7059B022B00D04CE70A
S1133D10B8330A4AD35C002B00D046E7114C10227A
S1133D2000212000064B98470B2785E701277F4297
S1133D303DE7C0466C020020ED6C00008C090020B9
S1133D406905000064020020709000001D6F0000EF
S1133D50D09C0000516F0000DD0800006D020020BF
S1133D60FC0900203C0A002030B589B00400002979
S1133D7025D0C3B20B2B25D80001174B1B189B7AF7
S1133D80012B22D1002A23D005AD2C720822280051
S1133D90124B98472401104B1C19E3886B810023B4
S1133DA00293019300930C332A00412102200C4C0E
S1133DB0A047002801D00920404209B030BD0620A8
S1133DC04042FAE706204042F7E706204042F4E783
S1133DD006204042F1E7C0468C090020550500004A
S1133DE0DD08000070B588B00400C3B20B2B30D8D6
S1133DF0002931D000011D4B1B189B7A012B2ED1B9
S1133E00002A2FD0194B1B18DB7A4426DB0705D573
S1133E10164B1B18DA7A05AB5A72073605AD2C72AD
S1133E2008222800124B98472401104B1C19E388E0
S1133E306B8100230293019300930C332A00310019
S1133E4002200C4CA047002801D00920404208B0B1
S1133E5070BD06204042FAE706204042F7E70620FC
S1133E604042F4E706204042F1E7C0468C090020B6
S1133E7055050000DD08000030B589B0C3B20B2B36
S1133E803ED800293FD0AF23DB009A423ED804013C
S1133E90214B1B199B7A012B3BD104AB18705A8020
S1133EA025001D4C6419E4889C815025062800DDFA
S1133EB00C3D0401184B1B19DC7A4523E4070BD590
S1133EC00401154B1B19DB7A5BB2002B16DB124B7A
S1133ED018190589ADB24C2380201843029501922C
S1133EE00091102304AA010002200C4CA0470023D7
S1133EF0002800D00E3B180009B030BD4523EBE785
S1133F0006235B42F7E706235B42F4E706235B42A2
S1133F10F1E706235B42EEE78C090020DD08000090
S1133F20F0B5C64600B588B00400884617000E9E5A
S1133F300B283BD0C3B20B2B3CD8AF23DB0042464B
S1133F40002A3AD09F423BD82201204B9B189B7AEF
S1133F50012B38D104AD1022002128001C4B9847B6
S1133F602C706F802201194B9B18DB88AB81002ECB
S1133F7006D004AB32889A807288DA80726806921E
S1133F800B2C15D04423029301974346009310232E
S1133F9004AAC72102200F4CA0470023002800D008
S1133FA00E3B180008B004BC9046F0BD0A4BC6E7AF
S1133FB02823E8E706235B42F3E706235B42F0E7A6
S1133FC006235B42EDE706235B42EAE78C09002007
S1133FD069050000DD0800002406000030B589B042
S1133FE0C4B20B2C40D8002941D0002A42D005018C
S1133FF0234C6419A47A012C3FD1214C2951641912
S1134000A280247B0021002C27D11D4949190124B9
S11340100C73CC7A4621E40706D519494919C97AA3
S113402049B200291CDB4D21002B1BD1013B059318
S113403005AC20710001124B1818C388E38022815B
S113404000230293019300930C33220002200D4CB1
S1134050A0470021002800D00E39080009B030BD67
S11340604621E1E70593E3E706214942F5E7062106
S11340704942F2E706214942EFE706214942ECE7CB
S11340808C090020DD08000030B587B004001F480B
S11340901F4DA84722011F4B9B189A7AD2B22100C8
S11340A01D48A8470D201D4B9847E3B20B2B27D87A
S11340B02201184B9B189B7A012B24D105A90C7063
S11340C0144B9B18DA884A80DB7A4921DB0700D538
S11340D005310023029301930093043305AA0220BF
S11340E00F4DA847051E01D009256D42240109483A
S11340F02018102200210B4B9847280007B030BD30
S113410006256D42F9E706256D42F6E7709000003A
S11341101D6F00008C090020B09C0000516F00004E
S1134120DD0800006905000030B589B0C4B20B2C6D
S11341303BD800293CD0002A3DD00501214C64190C
S1134140A47A012C3AD11F4C6419A57A0024002DBD
S113415026D01C4C050129516419A280217B00241E
S113416000291DD11749491901240C73002B1AD1B8
S1134170013B059305A908710001124B1818C38867
S1134180CB800A8100230293019300930C330A002D
S1134190482102200C4CA0470024002800D00E3CEB
S11341A0200009B030BD0593E4E706246442F7E734
S11341B006246442F4E706246442F1E706246442D8
S11341C0EEE7C0468C090020DD08000070B582B01F
S11341D000230193002600210278441C05300B00C3
S11341E009E09D005B195B009B18DBB222000134DF
S11341F0A0420AD012782E2A0AD0002A0CD0303AD3
S1134200D2B2092AEDD9002000E0002002B070BD2E
S11342106A46B354200002E06A46B35420000136D3
S1134220042ED9D10422694601A8024B984701986B
S1134230ECE7C046550500000C4B1B68002B06D16B
S1134240EFF31083002B07D00022094B1A70074AA2
S1134250136801331360704772B6BFF35F8F002297
S1134260044B1A700132024B1A70F0E770020020FE
S1134270740200200A000020084B1A68013A1A60F0
S11342801B68002B09D1064B1B78002B05D001229B
S1134290044B1A70BFF35F8F62B670477002002040
S11342A0740200200A000020F0B583B001AC01259F
S11342B065700027A770257021003E20064EB04788
S11342C08022D205054B9A612770657021000F206A
S11342D0B04703B0F0BDC046B14400008044004183
S11342E01723002A01D0180070478B00064A9B58F8
S11342F0002B03D0834205D01D23F4E789008850A6
S11343000023F0E70023EEE7580A002017230029D2
S113431001D01800704700221F2800D8024A012348
S11343208340D3600023F4E70018004017230029DA
S113433001D01800704700221F2800D8024A012328
S1134340834093600023F4E70018004070B5002216
S1134350104B1A70002310491F25104E0D4C0AE013
S11343600D4908E023780133DBB223700F2B10D8FA
S113437000211F2BF4D9280018400122824008692B
S11343801042EFD00A619B009B59002BEAD098475A
S1134390E8E770BD540A002000180040580A0020C5
S11343A0044A137802210B43137053785BB2002B39
S11343B0FBDB70470018004000B583B0124A9369D4
S11343C040210B43936101A900230B7005200F4B7F
S11343D0984705200E4B98470E4A137801210B434A
S11343E0137053785BB2002BFBDB0B4B190040318D
S11343F0002204C39942FCD11022084B1A60084BD6
S1134400984703B000BDC046000400405D59000059
S1134410D158000000180040580A002000E100E0D4
S1134420A143000000230360436001220272427230
S113443083720233C3727047F0B583B005000C0079
S113444001A900234B70CB7023790B70237A8B70F6
S11344502078154B984700201F2D00D813480722B9
S11344602A409200E77AA37A002B01D008231F4345
S1134470EB089B00C31899690F269640B1439740F7
S11344803A000A439A61637A002B06D143690122F8
S1134490AA409343436103B0F0BD42690123AB409A
S11344A013434361F7E7C046555A00000018004023
S11344B000B583B001AB80221A700A785A704A782A
S11344C09A708A78DA701900014B984703B000BDDE
S11344D0555A0000F0B5DE4657464E464546E0B50F
S11344E087B08046049116001F000022002300219B
S11344F08B463F2401202100009601975C460394DB
S11345004446059413E02024641A0500E540A846B7
S113451014E0009C019D121BAB415C464D462C43AC
S1134520A346039C45462C430394013925D32024F8
S113453064420C19E7D40500A540A84604008C4049
S1134540A14692185B4114001D00059E4F463E4053
S1134550B446049E47463E40B246664657463E43EE
S113456003D00600264332002B00009C019D9D428F
S1134570DBD8CED19442D8D8CBE7039B5846190058
S113458007B03CBC90469946A246AB46F0BD10B578
S1134590490840230024814202D2180010BD1C00A7
S11345A0091A631C9BB28842F9D94023FF2CF4D822
S11345B014800023F1E70000F0B583B00F0016006B
S11345C008AA117804004C434022BC4202D91000CE
S11345D003B0F0BD002B14D1020008000021194CD7
S11345E0A04701003A0000230020174CA0470022F6
S11345F00123121A8B41120C1B041A43328000222D
S1134600E5E70022012BF9D10A00002300210D4C1B
S1134610A04702000B0000920193380000210A4CCD
S1134620A047050080239B0140229842CFD8790FF0
S1134630F800009A019BA047EA00821AD2B2520302
S11346402A43DBE7F96C0000D544000010B582B0C2
S113465004000E4B1B78002B07D0002905D10B4B0F
S11346605B78834210D01D200CE001A90C7013204C
S1134670074B98471320074B9847044B5C70012263
S11346801A70002002B010BD0020FBE77802002061
S11346905D590000D1580000404B984231D00AD9EE
S11346A03F4B98424DD03F4B98425AD03E4B984294
S11346B037D0002070473D4B98420CD03C4B984279
S11346C0F7D1012917D000295DD0022915D003297B
S11346D015D00020EEE7012907D0002951D0022986
S11346E005D0032905D00020E4E73248E2E7324848
S11346F0E0E73248DEE73248DCE73248DAE73248BE
S1134700D8E7012907D000293FD0022905D0032981
S113471005D00020CEE72D48CCE72D48CAE72D4828
S1134720C8E7012907D0002931D0022905D003297F
S113473005D00020BEE72848BCE72848BAE7284847
S1134740B8E7012907D0002923D0022905D003297D
S113475005D00020AEE72348ACE72348AAE7234866
S1134760A8E7012907D0002915D0022905D003297B
S113477005D000209EE71E489CE71E489AE71E4885
S113478098E71E4896E7032094E71D4892E71D48E2
S113479090E71D488EE71D488CE7C0460010004294
S11347A000180042001C00420014004200080042AD
S11347B0000C00420300050003000600030007008C
S11347C00300010003001E0003001F000300090092
S11347D003000A0003000B00030011000300120091
S11347E00300130003000D0003000E0003000F007C
S11347F0030017000300180003001900030004005D
S1134800030008000300100003000C00030016005E
S113481030B587B00B4B6A4632CB32C232CB32C290
S1134820009B83420BD001239A006946525882426E
S113483006D00133062BF7D1002007B030BD00238A
S1134840D8B2FAE7EC9C000070470000F0B50A4BC0
S11348501B78002B0CD1094F094E0A4D0024DE5160
S11348605A1914600433182BF9D10122024B1A701F
S11348708000024BC150F0BD7A0200207C0200206F
S113488049480000980A002000B583B009236A460D
S1134890137001335370013393700133D3700133B8
S11348A0137101335371034B98476B46185603B089
S11348B000BDC0461148000010B5024B1B68002023
S11348C0984710BD7C02002010B5024B5B680120A4
S11348D0984710BD7C02002010B5024B9B68022053
S11348E0984710BD7C02002010B5024BDB68032002
S11348F0984710BD7C02002010B5024B1B690420B0
S1134900984710BD7C02002010B5024B5B6905205E
S1134910984710BD7C020020F0B58BB005000C0058
S1134920160029600B681C209B0701D50BB0F0BD55
S11349300B681738DB07F9D40800604B9847604AC6
S1134940116A871C0123BB400B43136209A9242766
S1134950F35D0B701430C3B201931800594B9847A0
S11349600198594B9847F05D0021584B984733788C
S1134970012B38D02B000C3329002831002204C32A
S11349808B42FCD10023EB62AB620024AB862B8606
S11349903633EC540133EC540133EC54353B6B7235
S11349A02C712868454B984707004949494B98475B
S11349B0BF00494BFD502F6804AB80221A705C7015
S11349C07F3A9A70DC703378002B02D1002204AB5A
S11349D09A70B36A0593F36A0693336B0793736B08
S11349E0089300240BE023680C2213432360C1E7DF
S11349F038003A4B98470AE00134042C10D0E1B255
S1134A00A30002AA0C201218D0580028F0D0431C8E
S1134A10F2D004A90870000CC0B2314B9847EBE700
S1134A2033786B71337CAB71B37CEB71337D2B7258
S1134A30002202ABDA803378012B28D07368B26885
S1134A401343F2681343317C727C002A03D1254A54
S1134A509278920701D580221343B27C002A02D0B7
S1134A60802292021143F27C002A02D0802292001A
S1134A701143327D002A02D08022920111433A6808
S1134A8013433B607B680B437B6000204EE7286840
S1134A900A4B98471430C0B2134B9847010002AB3D
S1134AA09A1DB069114B984703001720002B00D0C2
S1134AB03CE702AB06331B783B73BFE711480000A9
S1134AC0000400405D590000D15800004D4600002C
S1134AD0E54B00004D480000980A0020994600006C
S1134AE0555A000000200041795900008F4500000C
S1134AF010B544791523012C01D0180010BD047A97
S1134B000023002CF9D1002A58D04B78002B44D034
S1134B1003681B7EDB0710D40A78D109002300291F
S1134B2004D15309DB012E498C4663441F211140F3
S1134B3001228A409A610523DFE70A78D409002319
S1134B40002C04D15309DB01254CA44663441F24E3
S1134B5014400122A2405A6103681A7ED20701D58B
S1134B608A789A62C2790023002AC6D10268042195
S1134B70137E0B42FCD0117E00234907BDD5538B15
S1134B805B0701D5042353838379012B02D0936AF5
S1134B900023B2E7936A0023AFE70A78D109002320
S1134BA0002904D15309DB010D498C4663441F21BC
S1134BB0114001228A405A6100239EE70A78D109F4
S1134BC00023002904D15309DB0105498C466344C1
S1134BD01F21114001228A409A6100238DE7C046BB
S1134BE000440041F8B58000704BC4582668372350
S1134BF0E75C3622A25C1740337EB57D1D40EB078F
S1134C0002D56379012B1ED06B0711D5738B5B071B
S1134C105AD5637A012B08D01E223823E254353B3F
S1134C206372023333753B074AD4B36A0423738334
S1134C30AB0703D56379012B00D197E06DB2002D4A
S1134C4000DAA9E0F8BD637A002B22D0637A002B46
S1134C50DAD02168E26A1378DBB2501CE062A079F2
S1134C60012827D09BB2DB05DB0D8B62A38E013BB1
S1134C709BB2A386A38E9BB2002BC5D1013333759F
S1134C80637A012BC0D1E379002BBDD10233B37514
S1134C90BAE7474B1B88B362638E013B9BB26386C2
S1134CA0638E9BB2002B01D1013333756379012BE1
S1134CB0CCD0A9E75078000203430232E262D2E783
S1134CC02000A3699847B0E7637A012B28D02368B2
S1134CD09B6ADB05DB0DDAB2A16A0A70A26A511C79
S1134CE0A162A179012934D0238E013B9BB2238692
S1134CF0238E9BB2002B00D09AE700223833E25473
S1134D00343B3375637A022B29D0637A002B00D0AD
S1134D108EE7BB0700D48BE720002369984787E719
S1134D2023689B6A638E013B9BB26386638E9BB24E
S1134D30002B00D07CE70433337500223433E25473
S1134D40353B6372FB0700D472E72000E3689847A1
S1134D506EE71B0A5370A36A0133A362C4E77B079F
S1134D6000D465E720006369984761E7637A012B03
S1134D7000D063E7E379002B00D05FE7023333759B
S1134D800133637200223533E254FB0700D455E744
S1134D902000E368984751E78023337533767B0618
S1134DA000D44FE7636A200098474BE7980A002035
S1134DB0B00A0020F0B5DE4657464E464546E0B5FB
S1134DC091B005000C00160029600800BA4B984702
S1134DD0020023680520DB0706D511B03CBC9046D1
S1134DE09946A246AB46F0BD236817309B07F4D41E
S1134DF0B249086A971C0123BB4003430B620FA905
S1134E002D27F35D0B701432D3B202931800AC4B10
S1134E1098470298AB4B9847F05D0021AA4B9847FE
S1134E20F37A6B712423F35CAB712523F35CEB7190
S1134E30F37E2B72337F6B722B68984618009E4B5F
S1134E409847143000220E2306A98C4663441A8026
S1134E50328A02928023DB019A4200D19AE00FD970
S1134E60C023DB01029A9A4200D18EE080231B0208
S1134E709A4200D01BE1032306930023079308E022
S1134E8080239B019A4200D011E1102306930F3B2B
S1134E90079333680593F3689B4673690393337EE2
S1134EA004932623F35C9A4673689946002B00D139
S1134EB09CE080235B05994500D180E0737E002B44
S1134EC002D0B37E424693730E2306AA94466344EB
S1134ED01B8842469381059B5A461343039A134306
S1134EE04A461343029F1F43049B1B021F4353461E
S1134EF05B071F432723F35C002B01D104331F43BB
S1134F00737E9B02327F52021343727F1202134359
S1134F102422B25C520413432522B25C12041343CC
S1134F20B17AF27A114319433389FF2B00D181E01E
S1134F3080225204174319432C23F35C002B03D122
S1134F40624B9B789B0701D580231F432A68D36952
S1134F50002BFCD1434659602A68D369002BFCD14D
S1134F6043461F600EAB80221A7000225A70DA701A
S1134F709A70336B0A93736B0B93B36B0C93F36B51
S1134F8002930D9300270AAE63E008230693073BC0
S1134F9007937EE733680593F3689B46736903932D
S1134FA0337E04932623F35C9A4673689946002B58
S1134FB018D080235B05994501D0002025E02723E4
S1134FC0F35C002B00D079E7336A1F00C0B2404B7A
S1134FD0984701000E2206AB9C46624438003D4BC4
S1134FE0984712E008230693002307932723F35CD2
S1134FF0002B0ED0069B0093079B0E2206A98C461D
S11350006244B16A306A344FB847002800D0E4E6FD
S113501054E7336A1F00C0B22D4B98470100069B2A
S11350200093079B0E2206A88446624438002A4F48
S1135030B847EAE7F37E002B00D17DE78023DB0449
S11350401F4379E72000254B984707E00137042FD9
S11350500DD0F9B2BB0098590028F3D0431CF5D009
S11350600EA90870000CC0B21D4B9847EEE7002350
S1135070EB602B616B61AB61EB612B62AB626B62CA
S11350800022EB85AB853033EA540133EA54013313
S1135090EA540133EA542868074B9847040011493D
S11350A0114B9847A400114BE550002095E61023BE
S11350B0069300230793ECE6114800000004004027
S11350C05D590000D15800004D4600000020004109
S11350D0795900008F450000B94500009946000049
S11350E0555A0000815100004D480000980A0020E4
S11350F0C2791C23002A01D118007047C28D92B2D4
S1135100173B002AF8D1026811850221137E0B4255
S1135110FCD00023F0E782791C23002A01D1180077
S11351207047828D92B2173B002AF8D10268107E34
S11351304007F4D5538BDBB298061DD0980703D5EE
S1135140022353831833EAE7580703D50423538310
S11351501A33E4E7D80703D5012353831233DEE778
S1135160D80603D5102353833233D8E79B0603D5DF
S1135170202353832133D2E7138D0B800023CEE702
S1135180F8B58000624BC5582C68E369002BFCD14C
S1135190237EA67D1E403023EB5C3122AF5C1F4092
S11351A0F30722D5EB8D9BB2002B1CD0AA6A13788F
S11351B0DBB2511CA962697901290ED09BB2DB05CF
S11351C0DB0D2385EB8D013B9BB2EB85002B0CD1D2
S11351D0013323750133A37507E0517809020B43AA
S11351E00232AA62EBE701232375B30706D5022333
S11351F0237500223133EA54FB071AD4730765D5AB
S1135200AB8D9BB2002B5FD0638BDBB21A0714D437
S11352103F221340002B34D09A0711D51A2232238F
S1135220EA54303B63837B0750D528006B69984769
S11352304CE02800EB689847E0E737221340E9E7A1
S11352405A0705D51E223223EA542E3B6383EAE72C
S1135250DA0705D513223223EA54313B6383E2E7AC
S1135260DA0605D542223223EA54223B6383DAE785
S113527020221A42D7D021323223EA54123B6383CC
S1135280D1E7238DDB05DB0DDAB2696A0A706A6A3D
S1135290511C69626979012910D0AB8D013B9BB225
S11352A0AB85002B12D10433237500222E33EA542C
S11352B0BB070BD528002B69984707E01B0A5370DE
S11352C06B6A01336B62E8E704232375F30604D5A4
S11352D0102323752376FB060ED4B30604D52023AE
S11352E0237523763B070BD4330704D50823237592
S11352F02376BB0608D4F8BD2800EB699847ECE791
S11353002800AB699847EFE72B6A28009847F2E733
S1135310980A002010B5082803D880001C4B1B589D
S11353209F46002032E01B4B18692FE01A4B1B6A82
S11353309B059B0F1948D84028E0164B586925E077
S1135340144B1B6800209B0720D513491022CB68FF
S11353501A42FCD00F4B1A6824231340042B01D0AB
S11353600F4813E000200F4B98470A4B9B681B041F
S11353701B0C58430AE05023074AD35C00205B0708
S113538004D5044BD86801E08020000210BDC0465B
S1135390049D0000940200200008004000127A00DE
S11353A0006CDC027959000070B50C490B6A047872
S11353B0857840780122104080014026B34303439E
S11353C02A40D20180208343134303222240120245
S11353D00348034013430B6270BDC04600080040FD
S11353E0FFFCFFFFF0B5DE4657464E464546E0B5A6
S11353F00100264B9B469B8A4578007842424241F5
S113540091468878CA7894460A7990464E7B0F7BF9
S11354108C7B8A681E494A6101214A469200914662
S1135420042293434A46134342460A40D20090461C
S1135430082293434246134362460A4012019446AB
S113544010229343624613430840400120229343B1
S113545003430F40BF01402083433B430E40F6010A
S1135460403083433343793805402D0209480340D3
S11354702B4321400903084803400B435A469382B7
S11354803CBC90469946A246AB46F0BD000800409D
S113549094020020FFF8FFFFFFEFFFFF10B5037A2F
S11354A09B061B0C42899205920D134318494B60CD
S11354B08379C27913434288848822431343427810
S11354C0D20113430B600378042B11D0202B0ED18F
S11354D0037B9B06028A1343C28912040D490A40C6
S11354E013430B4A936011680B4B0B43136010BDBD
S11354F0037B9B06028A1343C289120405490A40AE
S11355001343034A9360136804210B431360EEE7CB
S1135510940200200000FF0324040000082803D89C
S11355208000254B1B589F46172044E0234A136AEA
S113553002210B43136200203DE0204A93690221BB
S11355400B439361002036E01C4A138A02210B436B
S1135550138200202FE0194A938A02210B4393827D
S1135560002028E016490B68022213430B60134BFA
S11355709A8419000E32CB681A42FCD0104A916802
S11355800E4BD96252689A6200229A841900103232
S1135590CB681A42FCD00A4B1B689BB2074A93841F
S11355A0002008E0054944228B5C022003438B540D
S11355B0002000E000207047289D00000008004003
S11355C094020020F0B58FB0C222D200474B9A60FB
S11355D0474A53681E218B431A390B4353600222F6
S11355E001AB1A700024434DE0B201A9A84701346D
S11355F0252CF9D10AA8002303708370802212029B
S11356008260C37001220271037383730232427099
S11356104373394B98470520384B98473349022246
S1135620CB681A42FCD0314A938A80210B4393827F
S113563005AB00210022598099809A71DA713F31BB
S113564059813B3919705A702D4B1B689B0E3F2BA7
S11356504AD005A803722B4B038207230373383304
S1135660C381294B984704A80025457001268670FC
S11356700570264B98470620204FB847244B98477F
S113568001AC0296657025726572052323702100B2
S11356900120204B984701201F4B9847267021007A
S11356A00020144B984700201C4B98470720B8470C
S11356B00E49D022CB681340D02BFBD1184A0023CB
S11356C0137253729372D37201A901224A604B7010
S11356D00B724B7207330B7000200E4B984700205F
S11356E00D4B98470FB0F0BD203BB2E700080040D7
S11356F0004000415D590000E55300001D550000C5
S113570024608000B90500009D540000A9530000E6
S1135710255700004957000001580000D1580000E7
S113572000040040064A936908210B439361012257
S1135730044B1A7019000B781342FCD17047C04611
S113574000040040000C004070B5060004000D7811
S11357502D0205434B78002B02D08023DB021D432E
S11357604B7A002B02D080231B031D434868012879
S113577010D9431E184234D1022830D90223002202
S113578001325B009842FBD812023243140080239A
S11357905B031D430B7A002B02D080239B031D4324
S11357A0134A53785BB2002BFBDB124B9847124B26
S11357B01E700F4A53785BB2002BFBDB0C4B9C60D2
S11357C01A0053785BB2002BFBDB094A5368802133
S11357D049020B401D435560084B984770BD002299
S11357E0D2E70402344380239B021D43D2E7C04620
S11357F0000C004039420000080C004079420000CF
S113580010B504000B4A53785BB2002BFBDB0A4B48
S113581098470A4B1C70074A53785BB2002BFBDB9A
S1135820044A516880235B020B435360044B98473E
S113583010BDC046000C004039420000040C00407A
S11358407942000070B504001A4A53785BB2002B09
S1135850FBDB194B9847194B1C70164A53785BB203
S1135860002BFBDB134E7068C004C00E144B98472A
S11358700500124B1C707668F602F60F114B1C7073
S11358800C4A53785BB2002BFBDB0A4B9C68240266
S1135890240C0D4B9847002E07D1012C07D9210069
S11358A028000A4B9847050001E00134E540280030
S11358B070BDC046000C004039420000040C00409A
S11358C015530000080C0040794200000D6A0000E6
S11358D010B50400064B9847064B1C70064A5388C3
S11358E08021C9010B435380044B984710BDC04627
S11358F039420000020C0040000C004079420000D4
S113590010B504000F4B98470F4B1C700F4A538877
S11359101B05180F53880E490B40538053880D49BB
S11359200B40538011008022D2014B881342FCD1DA
S113593006494A8803020648024013434B80064B3B
S1135940984710BD39420000020C0040000C004092
S1135950FFF0FFFFFFBFFFFF7942000010B50C7896
S113596024020443024B9847A4B2024B5C8010BD4E
S113597001590000000C004010B50400064B984784
S1135980064B1C70064B5C882405240F054B984776
S11359902000054B984710BD39420000020C00401E
S11359A0000C0040794200004558000030B5D3781F
S11359B0002B35D11378802B29D01B068024640258
S11359C0234354780225AC4306D19478002C20D18B
S11359D08024A402234341605478013C012C1CD947
S11359E00D042D0CA024E4052C431C4384620D0CEF
S11359F0D02424062C431C438462D478002C22D166
S1135A005B031CD59378012B1ED0416117E0002362
S1135A10D7E7C024E4022343DDE70D4C2340DFE74E
S1135A2041600C04240CA023DB05234383620C0C8B
S1135A30D0231B0623438362D378002B03D15378EE
S1135A40013B012B02D930BD8161F8E78160FAE79F
S1135A50FFFFFBFF10B50A00C1090023002904D190
S1135A604309DB0105498C4663441F24204001217E
S1135A7081401800024B984710BDC04600440041C5
S1135A80AD5900007047000010B5054B9847054B11
S1135A909847054B9847054B9847054B984710BDC9
S1135AA0C5550000A9420000855A0000B943000012
S1135AB0855A0000F0B5C64600B580000E4BC758A5
S1135AC03B68DE6ABB6B7A6B13401E4000240B4BB1
S1135AD0984602E00434302C0AD04346E558354257
S1135AE0F8D03B195B68380098473B68DD62F1E702
S1135AF004BC9046F0BDC046B40A00204C9D000092
S1135B0010B50020014B984710BDC046B55A00009F
S1135B1010B50120014B984710BDC046B55A00008E
S1135B2010B50220014B984710BDC046B55A00007D
S1135B30FEE70000F8B52A4A2A4B9A4211D01A000F
S1135B40294B9A420DD2294A03339B1A9B080133ED
S1135B509B000022234822498C58845004329A42E4
S1135B60FAD1234A234B9A420AD2D34321495B18E0
S1135B7003218B4304339B18002102C29342FCD1BE
S1135B801D4AFF211D4B8B439360FD3990235B001D
S1135B901B4AD1501B4AD3780325AB430224234329
S1135BA0D370D3780C27BB4308263343D370164BEA
S1135BB0987B30229043202210439873997BB943F9
S1135BC0314399739A7BAA4322439A730F4A5368C9
S1135BD080210B4353600E4B98470E4B9847FEE7CA
S1135BE034A90000000000202C0200200400002042
S1135BF02C020020E00A002000ED00E0000000007C
S1135C000070004100500041004800410040004144
S1135C104D6D0000F5620000F0B5C64600B50C00FD
S1135C20904600280FD1002A11DD8F18094E0A4D25
S1135C30306821002B6898470134BC42F8D14046B3
S1135C4004BC9046F0BD01235B429846F7E78046CA
S1135C50F5E7C046C80A0020C00A0020F0B5C646D1
S1135C6000B50E0015000138022810D8002A11D002
S1135C7000240C4B98460C4F43461868315D3B6832
S1135C809847002808DB0134A542F5D106E0012439
S1135C90644203E0140001E001246442200004BCD7
S1135CA09046F0BDC80A0020C40A00200300064A3A
S1135CB01268002A04D0044A1068C318136070479D
S1135CC00249014A1160F6E7AC020020E02A0020F4
S1135CD001204042704780239B014B6000207047A5
